{
  "address": "0x923AaD8C148ba83c8a9F10e0C170688ffC1d4dA3",
  "abi": [
    {
      "inputs": [
        {
          "internalType": "address",
          "name": "ReviewerContractAddress",
          "type": "address"
        },
        {
          "internalType": "address payable",
          "name": "_vaultContractAddress",
          "type": "address"
        },
        {
          "internalType": "address",
          "name": "EAGTokenAddress",
          "type": "address"
        }
      ],
      "stateMutability": "nonpayable",
      "type": "constructor"
    },
    {
      "inputs": [
        {
          "internalType": "address",
          "name": "",
          "type": "address"
        },
        {
          "internalType": "uint256",
          "name": "",
          "type": "uint256"
        }
      ],
      "name": "notSentTo_vaultContract",
      "type": "error"
    },
    {
      "inputs": [
        {
          "internalType": "uint256",
          "name": "reportID",
          "type": "uint256"
        }
      ],
      "name": "check_and_pay_Review",
      "outputs": [],
      "stateMutability": "payable",
      "type": "function"
    }
  ],
  "transactionHash": "0x7a1649e8285805dbfc8b4652f3270e7aea8709447c2726c9fdfe5aa797b8848d",
  "args": [
    "0x9686C808A9D656185724bAEAADFB1F18404eC01F",
    "0x3B2f81b0aB1541A860A8842b17F0389b025E909B",
    "0xadFB8e8E4C0B2142734263D4c7aB62DC507A29C9"
  ],
  "numDeployments": 1,
  "solcInputHash": "25e2596528b91d1e95321d5a5ae267a4",
  "bytecode": "0x608060405234801561001057600080fd5b5060405161041838038061041883398101604081905261002f91610089565b600080546001600160a01b039485166001600160a01b0319918216179091556001805493851693821693909317909255600280549190931691161790556100d6565b6001600160a01b038116811461008657600080fd5b50565b60008060006060848603121561009e57600080fd5b83516100a981610071565b60208501519093506100ba81610071565b60408501519092506100cb81610071565b809150509250925092565b610333806100e56000396000f3fe60806040526004361061001e5760003560e01c80630923dc1914610023575b600080fd5b610036610031366004610272565b610038565b005b670de0b6b3a76400003410156100ae5760405162461bcd60e51b815260206004820152603060248201527f596f75206d7573742068617665206174206c6561737420312065746820746f2060448201526f1d9a595dc8199d5b1b081c995c1bdc9d60821b60648201526084015b60405180910390fd5b60006100bb600a3461028b565b6001546040519192506000916001600160a01b039091169083908381818185875af1925050503d806000811461010d576040519150601f19603f3d011682016040523d82523d6000602084013e610112565b606091505b505090508061013d57604051631447af1360e11b8152336004820152602481018390526044016100a5565b600061014983346102ad565b60005460405163679f13bd60e01b8152600481018790529192506001600160a01b03169063679f13bd9083906024016000604051808303818588803b15801561019157600080fd5b505af11580156101a5573d6000803e3d6000fd5b505060025460405163a9059cbb60e01b8152336004820152600a60248201526001600160a01b03909116935063a9059cbb925060440190506020604051808303816000875af11580156101fc573d6000803e3d6000fd5b505050506040513d601f19601f8201168201806040525081019061022091906102d4565b61026c5760405162461bcd60e51b815260206004820152601860248201527f5472616e73666572206f6620546f6b656e206661696c6564000000000000000060448201526064016100a5565b50505050565b60006020828403121561028457600080fd5b5035919050565b6000826102a857634e487b7160e01b600052601260045260246000fd5b500490565b818103818111156102ce57634e487b7160e01b600052601160045260246000fd5b92915050565b6000602082840312156102e657600080fd5b815180151581146102f657600080fd5b939250505056fea26469706673582212204331a5fa21206772da11ad90975040de67aa1af00c583173054195e2fd7c3bb564736f6c63430008130033",
  "devdoc": {
    "kind": "dev",
    "methods": {},
    "version": 1
  },
  "userdoc": {
    "kind": "user",
    "methods": {},
    "version": 1
  },
  "storageLayout": {
    "storage": [
      {
        "astId": 13352,
        "contract": "contracts/customerContract.sol:customerContract",
        "label": "reviewerContract",
        "offset": 0,
        "slot": "0",
        "type": "t_contract(ReviewerContract)13345"
      },
      {
        "astId": 13354,
        "contract": "contracts/customerContract.sol:customerContract",
        "label": "vaultContractAddress",
        "offset": 0,
        "slot": "1",
        "type": "t_address_payable"
      },
      {
        "astId": 13363,
        "contract": "contracts/customerContract.sol:customerContract",
        "label": "EAGToken",
        "offset": 0,
        "slot": "2",
        "type": "t_contract(IERC20)5338"
      }
    ],
    "types": {
      "t_address_payable": {
        "encoding": "inplace",
        "label": "address payable",
        "numberOfBytes": "20"
      },
      "t_contract(IERC20)5338": {
        "encoding": "inplace",
        "label": "contract IERC20",
        "numberOfBytes": "20"
      },
      "t_contract(ReviewerContract)13345": {
        "encoding": "inplace",
        "label": "contract ReviewerContract",
        "numberOfBytes": "20"
      }
    }
  }
}