{
  "address": "0x3B2f81b0aB1541A860A8842b17F0389b025E909B",
  "abi": [
    {
      "anonymous": false,
      "inputs": [
        {
          "indexed": true,
          "internalType": "address",
          "name": "previousOwner",
          "type": "address"
        },
        {
          "indexed": true,
          "internalType": "address",
          "name": "newOwner",
          "type": "address"
        }
      ],
      "name": "OwnershipTransferred",
      "type": "event"
    },
    {
      "anonymous": false,
      "inputs": [
        {
          "indexed": false,
          "internalType": "address",
          "name": "",
          "type": "address"
        }
      ],
      "name": "proposalUsed",
      "type": "event"
    },
    {
      "stateMutability": "payable",
      "type": "fallback"
    },
    {
      "inputs": [],
      "name": "owner",
      "outputs": [
        {
          "internalType": "address",
          "name": "",
          "type": "address"
        }
      ],
      "stateMutability": "view",
      "type": "function"
    },
    {
      "inputs": [],
      "name": "renounceOwnership",
      "outputs": [],
      "stateMutability": "nonpayable",
      "type": "function"
    },
    {
      "inputs": [
        {
          "internalType": "address payable",
          "name": "proposalUse",
          "type": "address"
        }
      ],
      "name": "transferFund",
      "outputs": [],
      "stateMutability": "nonpayable",
      "type": "function"
    },
    {
      "inputs": [
        {
          "internalType": "address",
          "name": "newOwner",
          "type": "address"
        }
      ],
      "name": "transferOwnership",
      "outputs": [],
      "stateMutability": "nonpayable",
      "type": "function"
    },
    {
      "stateMutability": "payable",
      "type": "receive"
    }
  ],
  "transactionHash": "0x0046d10fd07f40eb347bd8fbd225315962e8f8f720b39d2fa15988c3df2e9576",
  "args": [],
  "numDeployments": 1,
  "solcInputHash": "25e2596528b91d1e95321d5a5ae267a4",
  "bytecode": "0x608060405234801561001057600080fd5b5061001a3361001f565b61006f565b600080546001600160a01b038381166001600160a01b0319831681178455604051919092169283917f8be0079c531659141344cd1fd0a4f28419497f9722a3daafe3b4186f6b6457e09190a35050565b6103528061007e6000396000f3fe6080604052600436106100405760003560e01c8063715018a6146100495780638da5cb5b1461005e578063cd4558fd1461008a578063f2fde38b146100aa57005b3661004757005b005b34801561005557600080fd5b506100476100ca565b34801561006a57600080fd5b50600054604080516001600160a01b039092168252519081900360200190f35b34801561009657600080fd5b506100476100a53660046102f8565b6100de565b3480156100b657600080fd5b506100476100c53660046102f8565b6101c0565b6100d2610239565b6100dc6000610293565b565b6100e6610239565b6000816001600160a01b03164760405160006040518083038185875af1925050503d8060008114610133576040519150601f19603f3d011682016040523d82523d6000602084013e610138565b606091505b50509050806101805760405162461bcd60e51b815260206004820152600f60248201526e151c985b9cd9995c8819985a5b1959608a1b60448201526064015b60405180910390fd5b6040516001600160a01b03831681527f890706e0569000d017c5375527066665c826dcc475670e05cfa2fa4ce16a55009060200160405180910390a15050565b6101c8610239565b6001600160a01b03811661022d5760405162461bcd60e51b815260206004820152602660248201527f4f776e61626c653a206e6577206f776e657220697320746865207a65726f206160448201526564647265737360d01b6064820152608401610177565b61023681610293565b50565b6000546001600160a01b031633146100dc5760405162461bcd60e51b815260206004820181905260248201527f4f776e61626c653a2063616c6c6572206973206e6f7420746865206f776e65726044820152606401610177565b600080546001600160a01b038381166001600160a01b0319831681178455604051919092169283917f8be0079c531659141344cd1fd0a4f28419497f9722a3daafe3b4186f6b6457e09190a35050565b6001600160a01b038116811461023657600080fd5b60006020828403121561030a57600080fd5b8135610315816102e3565b939250505056fea2646970667358221220f52399d422686eb9a562b71b3d23d13b6483fe6725b39038b5d2aafb591346cf64736f6c63430008130033",
  "devdoc": {
    "kind": "dev",
    "methods": {
      "owner()": {
        "details": "Returns the address of the current owner."
      },
      "renounceOwnership()": {
        "details": "Leaves the contract without owner. It will not be possible to call `onlyOwner` functions. Can only be called by the current owner. NOTE: Renouncing ownership will leave the contract without an owner, thereby disabling any functionality that is only available to the owner."
      },
      "transferOwnership(address)": {
        "details": "Transfers ownership of the contract to a new account (`newOwner`). Can only be called by the current owner."
      }
    },
    "version": 1
  },
  "userdoc": {
    "kind": "user",
    "methods": {},
    "notice": "vaultContract - Eagle-Eye platform safe percentage of Reviewers' earnings is locked here, to be decided on by the EagleEye Governance forum",
    "version": 1
  },
  "storageLayout": {
    "storage": [
      {
        "astId": 396,
        "contract": "contracts/Eagle_Eye_DAO/vaultContract.sol:vaultContract",
        "label": "_owner",
        "offset": 0,
        "slot": "0",
        "type": "t_address"
      }
    ],
    "types": {
      "t_address": {
        "encoding": "inplace",
        "label": "address",
        "numberOfBytes": "20"
      }
    }
  }
}